{
    "contractName": "FranciscoToken",
    "abi": [
        {
            "inputs": [
                {
                    "internalType": "uint256",
                    "name": "cap",
                    "type": "uint256"
                }
            ],
            "stateMutability": "nonpayable",
            "type": "constructor"
        },
        {
            "anonymous": false,
            "inputs": [
                {
                    "indexed": true,
                    "internalType": "address",
                    "name": "owner",
                    "type": "address"
                },
                {
                    "indexed": true,
                    "internalType": "address",
                    "name": "spender",
                    "type": "address"
                },
                {
                    "indexed": false,
                    "internalType": "uint256",
                    "name": "value",
                    "type": "uint256"
                }
            ],
            "name": "Approval",
            "type": "event"
        },
        {
            "anonymous": false,
            "inputs": [
                {
                    "indexed": true,
                    "internalType": "address",
                    "name": "from",
                    "type": "address"
                },
                {
                    "indexed": true,
                    "internalType": "address",
                    "name": "to",
                    "type": "address"
                },
                {
                    "indexed": false,
                    "internalType": "uint256",
                    "name": "value",
                    "type": "uint256"
                }
            ],
            "name": "Transfer",
            "type": "event"
        },
        {
            "inputs": [
                {
                    "internalType": "address",
                    "name": "owner",
                    "type": "address"
                },
                {
                    "internalType": "address",
                    "name": "spender",
                    "type": "address"
                }
            ],
            "name": "allowance",
            "outputs": [
                {
                    "internalType": "uint256",
                    "name": "",
                    "type": "uint256"
                }
            ],
            "stateMutability": "view",
            "type": "function"
        },
        {
            "inputs": [
                {
                    "internalType": "address",
                    "name": "spender",
                    "type": "address"
                },
                {
                    "internalType": "uint256",
                    "name": "amount",
                    "type": "uint256"
                }
            ],
            "name": "approve",
            "outputs": [
                {
                    "internalType": "bool",
                    "name": "",
                    "type": "bool"
                }
            ],
            "stateMutability": "nonpayable",
            "type": "function"
        },
        {
            "inputs": [
                {
                    "internalType": "address",
                    "name": "account",
                    "type": "address"
                }
            ],
            "name": "balanceOf",
            "outputs": [
                {
                    "internalType": "uint256",
                    "name": "",
                    "type": "uint256"
                }
            ],
            "stateMutability": "view",
            "type": "function"
        },
        {
            "inputs": [],
            "name": "cap",
            "outputs": [
                {
                    "internalType": "uint256",
                    "name": "",
                    "type": "uint256"
                }
            ],
            "stateMutability": "view",
            "type": "function"
        },
        {
            "inputs": [],
            "name": "decimals",
            "outputs": [
                {
                    "internalType": "uint8",
                    "name": "",
                    "type": "uint8"
                }
            ],
            "stateMutability": "view",
            "type": "function"
        },
        {
            "inputs": [
                {
                    "internalType": "address",
                    "name": "spender",
                    "type": "address"
                },
                {
                    "internalType": "uint256",
                    "name": "subtractedValue",
                    "type": "uint256"
                }
            ],
            "name": "decreaseAllowance",
            "outputs": [
                {
                    "internalType": "bool",
                    "name": "",
                    "type": "bool"
                }
            ],
            "stateMutability": "nonpayable",
            "type": "function"
        },
        {
            "inputs": [
                {
                    "internalType": "address",
                    "name": "spender",
                    "type": "address"
                },
                {
                    "internalType": "uint256",
                    "name": "addedValue",
                    "type": "uint256"
                }
            ],
            "name": "increaseAllowance",
            "outputs": [
                {
                    "internalType": "bool",
                    "name": "",
                    "type": "bool"
                }
            ],
            "stateMutability": "nonpayable",
            "type": "function"
        },
        {
            "inputs": [],
            "name": "name",
            "outputs": [
                {
                    "internalType": "string",
                    "name": "",
                    "type": "string"
                }
            ],
            "stateMutability": "view",
            "type": "function"
        },
        {
            "inputs": [],
            "name": "owner",
            "outputs": [
                {
                    "internalType": "address payable",
                    "name": "",
                    "type": "address"
                }
            ],
            "stateMutability": "view",
            "type": "function"
        },
        {
            "inputs": [],
            "name": "symbol",
            "outputs": [
                {
                    "internalType": "string",
                    "name": "",
                    "type": "string"
                }
            ],
            "stateMutability": "view",
            "type": "function"
        },
        {
            "inputs": [],
            "name": "totalSupply",
            "outputs": [
                {
                    "internalType": "uint256",
                    "name": "",
                    "type": "uint256"
                }
            ],
            "stateMutability": "view",
            "type": "function"
        },
        {
            "inputs": [
                {
                    "internalType": "address",
                    "name": "to",
                    "type": "address"
                },
                {
                    "internalType": "uint256",
                    "name": "amount",
                    "type": "uint256"
                }
            ],
            "name": "transfer",
            "outputs": [
                {
                    "internalType": "bool",
                    "name": "",
                    "type": "bool"
                }
            ],
            "stateMutability": "nonpayable",
            "type": "function"
        },
        {
            "inputs": [
                {
                    "internalType": "address",
                    "name": "from",
                    "type": "address"
                },
                {
                    "internalType": "address",
                    "name": "to",
                    "type": "address"
                },
                {
                    "internalType": "uint256",
                    "name": "amount",
                    "type": "uint256"
                }
            ],
            "name": "transferFrom",
            "outputs": [
                {
                    "internalType": "bool",
                    "name": "",
                    "type": "bool"
                }
            ],
            "stateMutability": "nonpayable",
            "type": "function"
        }
    ],
    "bytecode": "60a06040523480156200001157600080fd5b5060405162000e6a38038062000e6a83398101604081905262000034916200029e565b620000426012600a620003cd565b6200004e9082620003e5565b6040518060400160405280600e81526020016d233930b731b4b9b1b7aa37b5b2b760911b8152506040518060400160405280600381526020016246544b60e81b8152508160039081620000a29190620004a3565b506004620000b18282620004a3565b505050600081116200010a5760405162461bcd60e51b815260206004820152601560248201527f45524332304361707065643a206361702069732030000000000000000000000060448201526064015b60405180910390fd5b608052600580546001600160a01b03191633908117909155620001509062000130601290565b6200013d90600a620003cd565b6200014a906064620003e5565b62000157565b5062000585565b608051816200016560025490565b6200017191906200056f565b1115620001c15760405162461bcd60e51b815260206004820152601960248201527f45524332304361707065643a2063617020657863656564656400000000000000604482015260640162000101565b620001cd8282620001d1565b5050565b6001600160a01b038216620002295760405162461bcd60e51b815260206004820152601f60248201527f45524332303a206d696e7420746f20746865207a65726f206164647265737300604482015260640162000101565b80600260008282546200023d91906200056f565b90915550506001600160a01b038216600081815260208181526040808320805486019055518481527fddf252ad1be2c89b69c2b068fc378daa952ba7f163c4a11628f55a4df523b3ef910160405180910390a3620001cd600083835b505050565b600060208284031215620002b157600080fd5b5051919050565b634e487b7160e01b600052601160045260246000fd5b600181815b808511156200030f578160001904821115620002f357620002f3620002b8565b808516156200030157918102915b93841c9390800290620002d3565b509250929050565b6000826200032857506001620003c7565b816200033757506000620003c7565b81600181146200035057600281146200035b576200037b565b6001915050620003c7565b60ff8411156200036f576200036f620002b8565b50506001821b620003c7565b5060208310610133831016604e8410600b8410161715620003a0575081810a620003c7565b620003ac8383620002ce565b8060001904821115620003c357620003c3620002b8565b0290505b92915050565b6000620003de60ff84168362000317565b9392505050565b8082028115828204841417620003c757620003c7620002b8565b634e487b7160e01b600052604160045260246000fd5b600181811c908216806200042a57607f821691505b6020821081036200044b57634e487b7160e01b600052602260045260246000fd5b50919050565b601f8211156200029957600081815260208120601f850160051c810160208610156200047a5750805b601f850160051c820191505b818110156200049b5782815560010162000486565b505050505050565b81516001600160401b03811115620004bf57620004bf620003ff565b620004d781620004d0845462000415565b8462000451565b602080601f8311600181146200050f5760008415620004f65750858301515b600019600386901b1c1916600185901b1785556200049b565b600085815260208120601f198616915b8281101562000540578886015182559484019460019091019084016200051f565b50858210156200055f5787850151600019600388901b60f8161c191681555b5050505050600190811b01905550565b80820180821115620003c757620003c7620002b8565b6080516108c9620005a1600039600061014b01526108c96000f3fe608060405234801561001057600080fd5b50600436106100cf5760003560e01c8063395093511161008c57806395d89b411161006657806395d89b41146101d6578063a457c2d7146101de578063a9059cbb146101f1578063dd62ed3e1461020457600080fd5b8063395093511461016f57806370a08231146101825780638da5cb5b146101ab57600080fd5b806306fdde03146100d4578063095ea7b3146100f257806318160ddd1461011557806323b872dd14610127578063313ce5671461013a578063355274ea14610149575b600080fd5b6100dc610217565b6040516100e99190610713565b60405180910390f35b61010561010036600461077d565b6102a9565b60405190151581526020016100e9565b6002545b6040519081526020016100e9565b6101056101353660046107a7565b6102c3565b604051601281526020016100e9565b7f0000000000000000000000000000000000000000000000000000000000000000610119565b61010561017d36600461077d565b6102e7565b6101196101903660046107e3565b6001600160a01b031660009081526020819052604090205490565b6005546101be906001600160a01b031681565b6040516001600160a01b0390911681526020016100e9565b6100dc610309565b6101056101ec36600461077d565b610318565b6101056101ff36600461077d565b610398565b610119610212366004610805565b6103a6565b60606003805461022690610838565b80601f016020809104026020016040519081016040528092919081815260200182805461025290610838565b801561029f5780601f106102745761010080835404028352916020019161029f565b820191906000526020600020905b81548152906001019060200180831161028257829003601f168201915b5050505050905090565b6000336102b78185856103d1565b60019150505b92915050565b6000336102d18582856104f5565b6102dc85858561056f565b506001949350505050565b6000336102b78185856102fa83836103a6565b6103049190610872565b6103d1565b60606004805461022690610838565b6000338161032682866103a6565b90508381101561038b5760405162461bcd60e51b815260206004820152602560248201527f45524332303a2064656372656173656420616c6c6f77616e63652062656c6f77604482015264207a65726f60d81b60648201526084015b60405180910390fd5b6102dc82868684036103d1565b6000336102b781858561056f565b6001600160a01b03918216600090815260016020908152604080832093909416825291909152205490565b6001600160a01b0383166104335760405162461bcd60e51b8152602060048201526024808201527f45524332303a20617070726f76652066726f6d20746865207a65726f206164646044820152637265737360e01b6064820152608401610382565b6001600160a01b0382166104945760405162461bcd60e51b815260206004820152602260248201527f45524332303a20617070726f766520746f20746865207a65726f206164647265604482015261737360f01b6064820152608401610382565b6001600160a01b0383811660008181526001602090815260408083209487168084529482529182902085905590518481527f8c5be1e5ebec7d5bd14f71427d1e84f3dd0314c0f7b2291e5b200ac8c7c3b925910160405180910390a3505050565b600061050184846103a6565b90506000198114610569578181101561055c5760405162461bcd60e51b815260206004820152601d60248201527f45524332303a20696e73756666696369656e7420616c6c6f77616e63650000006044820152606401610382565b61056984848484036103d1565b50505050565b6001600160a01b0383166105d35760405162461bcd60e51b815260206004820152602560248201527f45524332303a207472616e736665722066726f6d20746865207a65726f206164604482015264647265737360d81b6064820152608401610382565b6001600160a01b0382166106355760405162461bcd60e51b815260206004820152602360248201527f45524332303a207472616e7366657220746f20746865207a65726f206164647260448201526265737360e81b6064820152608401610382565b6001600160a01b038316600090815260208190526040902054818110156106ad5760405162461bcd60e51b815260206004820152602660248201527f45524332303a207472616e7366657220616d6f756e7420657863656564732062604482015265616c616e636560d01b6064820152608401610382565b6001600160a01b03848116600081815260208181526040808320878703905593871680835291849020805487019055925185815290927fddf252ad1be2c89b69c2b068fc378daa952ba7f163c4a11628f55a4df523b3ef910160405180910390a3610569565b600060208083528351808285015260005b8181101561074057858101830151858201604001528201610724565b506000604082860101526040601f19601f8301168501019250505092915050565b80356001600160a01b038116811461077857600080fd5b919050565b6000806040838503121561079057600080fd5b61079983610761565b946020939093013593505050565b6000806000606084860312156107bc57600080fd5b6107c584610761565b92506107d360208501610761565b9150604084013590509250925092565b6000602082840312156107f557600080fd5b6107fe82610761565b9392505050565b6000806040838503121561081857600080fd5b61082183610761565b915061082f60208401610761565b90509250929050565b600181811c9082168061084c57607f821691505b60208210810361086c57634e487b7160e01b600052602260045260246000fd5b50919050565b808201808211156102bd57634e487b7160e01b600052601160045260246000fdfea264697066735822122098aac45e9e70ce75548b377338b7f2d499a77148a2f410bc3e45f9d64ce3790064736f6c63430008130033",
    "sourcePath": "c:/Users/User01/Desktop/Stuff/07 - Code/19 - erc-20-tutorial/francisco-token/contracts/FranciscoToken.sol",
    "compiler": {
        "name": "solc",
        "version": "0.8.19+commit.7dd6d404"
    },
    "functionHashes": {
        "allowance(address,address)": "dd62ed3e",
        "approve(address,uint256)": "095ea7b3",
        "balanceOf(address)": "70a08231",
        "cap()": "355274ea",
        "decimals()": "313ce567",
        "decreaseAllowance(address,uint256)": "a457c2d7",
        "increaseAllowance(address,uint256)": "39509351",
        "name()": "06fdde03",
        "owner()": "8da5cb5b",
        "symbol()": "95d89b41",
        "totalSupply()": "18160ddd",
        "transfer(address,uint256)": "a9059cbb",
        "transferFrom(address,address,uint256)": "23b872dd"
    },
    "gasEstimates": {
        "creation": {
            "codeDepositCost": "449800",
            "executionCost": "infinite",
            "totalCost": "infinite"
        },
        "external": {
            "allowance(address,address)": "infinite",
            "approve(address,uint256)": "24628",
            "balanceOf(address)": "2585",
            "cap()": "infinite",
            "decimals()": "266",
            "decreaseAllowance(address,uint256)": "26994",
            "increaseAllowance(address,uint256)": "infinite",
            "name()": "infinite",
            "owner()": "2404",
            "symbol()": "infinite",
            "totalSupply()": "2326",
            "transfer(address,uint256)": "51116",
            "transferFrom(address,address,uint256)": "infinite"
        }
    }
}